:020000040800F2
:10000000C0080020B90500088D0300088F03000810
:1000100093030008970300089B03000800000000FA
:100020000000000000000000000000009F03000826
:10003000A103000800000000A3030008A5030008B6
:10004000D3050008D3050008D3050008D305000830
:10005000D3050008D3050008D3050008D305000820
:10006000D3050008D3050008D3050008D305000810
:10007000D3050008D3050008D3050008D305000800
:10008000D3050008D3050008D3050008D3050008F0
:10009000D3050008D3050008D3050008D3050008E0
:1000A000D3050008D3050008D3050008D3050008D0
:1000B000E52A00088B2B0008A32B0008D3050008B5
:1000C000D3050008D3050008D3050008D3050008B0
:1000D000D3050008571C0008D32B0008D92B0008B3
:1000E000D3050008D3050008D3050008D305000890
:1000F000D3050008D3050008D3050008D305000880
:10010000D3050008D3050008BB2B0008D305000861
:10011000D3050008D3050008D3050008CD2A000840
:10012000D3050008D3050008D3050008D30500084F
:10013000D3050008D3050008D3050008D30500083F
:10014000D3050008D3050008D3050008D30500082F
:10015000D3050008D3050008D3050008DF2B0008ED
:10016000D3050008D3050008D3050008D30500080F
:10017000D3050008D3050008D3050008D3050008FF
:10018000D3050008D305000800F002F800F05CF881
:100190000AA090E8000C82448344AAF10107DA45E2
:1001A00001D100F051F8AFF2090EBAE80F0013F0D8
:1001B000010F18BFFB1A43F00103184788A800007D
:1001C000A8A800000A444FF0000C10F8013B13F0FF
:1001D000070408BF10F8014B1D1108BF10F8015BA0
:1001E000641E05D010F8016B641E01F8016BF9D193
:1001F00013F0080F1EBF10F8014BAD1C0C1B09D1EA
:100200006D1E58BF01F801CBFAD505E014F8016B5B
:1002100001F8016B6D1EF9D59142D6D370470000ED
:100220000023002400250026103A28BF78C1FBD8FF
:10023000520728BF30C148BF0B6070471FB508F098
:10024000E3FB1FBD10B510BD08F071FA1146FFF7B2
:10025000F5FF00F009F808F08FFA03B4FFF7F2FF9A
:1002600003BC01F099FC000008B501F0C1FE4FF499
:1002700016513B4802F0D0FE04220121084608F046
:1002800083F907F0DBFE374803880222292149F66B
:100290003F4002F0C9F8344803880322292149F677
:1002A0003F4002F0C1F874203049C86072203049E4
:1002B000C86053E0002008F096F92E4908700846FF
:1002C000007840B1102003230090084602786E2188
:1002D000502007F058FD1020042300902648B0F964
:1002E00000203221084607F04EFD10200423009024
:1002F0002248B0F900203221642007F044FD204854
:10030000B0F9004010200090002C01DB204600E0F6
:100310006042024604234621322007F034FD19488A
:10032000B0F9004010200090002C01DB204600E0D6
:100330006042024604234621642007F024FD12484F
:10034000046910200090002C01DB204600E0604290
:10035000024604235A21322007F015FDAAE70000C7
:1003600000140140308A0008328A0008340200205C
:100370004802002080000020B2000020B4000020CD
:10038000BE000020C00000200C020020704700BF0B
:10039000FEE700BFFEE700BFFEE700BFFEE77047D5
:1003A00070477047704700000CB500200190009026
:1003B0007648006840F480307449086000BF734894
:1003C000006800F4003000900198401C01900098F3
:1003D00018B90198B0F5A04FF1D16C48006800F44D
:1003E000003010B10120009001E000200090009842
:1003F000012846D165484030006840F0805063498C
:10040000403108606248006840F44040604908603C
:100410005E48083000685D49083108600846006899
:1004200040F4004008600846006840F4A0500860AE
:100430005848091F0860081F006840F08070091FB5
:10044000086000BF5148006800F000700028F9D033
:1004500040F20570504908604C480830006820F0B0
:1004600003004A49083108600846006840F002006D
:10047000086000BF45480830006800F00C000828FC
:10048000F8D10CBD10B54548006840F470004349F0
:1004900008603E48006840F001003C4908600020C8
:1004A0003A4908310860394800683D4908403749F1
:1004B00008603C48091D0860081F006820F480207F
:1004C000091F0860002031490C310860FFF76CFFFC
:1004D0004FF0006031498039086010BD70B50020D0
:1004E0000022022300240221284D08352D6805F042
:1004F0000C0020B1042806D0082834D107E02A4D8A
:100500002A4E356033E02A4D284E35602FE01F4DCE
:100510002D1D2D68C5F380541C4D2D1D2D6805F033
:100520003F0154B1224DB5FBF1F5184E361D36682A
:10053000C6F3881605FB06F209E01B4DB5FBF1F585
:10054000124E361D3668C6F3881605FB06F20F4DAF
:100550002D1D2D68C5F301456D1C6B00B2FBF3F535
:10056000124E356003E0104D104E356000BF00BFE5
:10057000064D08352D68C5F303150E4E705D0B4D05
:100580002D68C540094E356070BD0000003802403E
:100590000070004008544007003C024088ED00E035
:1005A000FFFFF6FE103000240024F4008400002039
:1005B00000127A0088000020094880470948004757
:1005C000FEE7FEE7FEE7FEE7FEE7FEE7FEE7FEE703
:1005D000FEE7FEE704480549054A064B7047000060
:1005E0008504000889010008C0020020C00800201E
:1005F000C0040020C004002032490143324A116087
:10060000704770B5002100230F22C4781CB32E4C14
:10061000246804F4E064C4F5E064C4F30721C1F184
:100620000404E3B20A4144789C40E1B28478144067
:1006300021430C07210E254C05786155047804F000
:100640001F050124AC4005786D11AD0005F1E025D2
:10065000C5F8004109E0047804F01F050124AC400E
:100660001B4D0678761145F8264070BD194A0A40A0
:100670000243154B1B1F1A60704739B1124A121DF5
:1006800012680243104B1B1D1A6006E00E4A121D31
:10069000126882430C4B1B1D1A607047042808D156
:1006A0004FF0E021096941F004014FF0E0221161AF
:1006B00007E04FF0E021096921F004014FF0E0224A
:1006C000116170470000FA050CED00E000E400E065
:1006D00080E100E080FFFF1F30B943F2DB028100C0
:1006E000A1F1C0410A6005E043F2D2028100A1F10C
:1006F000C0410A606FF07042411C8900A1F1C04105
:100700000A608100A1F1C041C1F804217047D0E91D
:1007100001121143C2681143026911434269114336
:1007200082691143C2691143026A1143426A11434B
:10073000826A1143C26A1143026B1143026892003C
:10074000A2F1C0421160816808290BD101688900BB
:10075000A1F1C041096841F0400201688900A1F19E
:10076000C0410A60416B0968426B526841EA02115C
:10077000426B926841EA0221426B928941EA02414E
:10078000426B128A41EA0251426B127D41EA0261D8
:10079000426B926911430268521C9200A2F1C0425E
:1007A0001160C16AB1F5804F1BD1816B0968826B02
:1007B000526841EA0211826B926841EA0221826B1F
:1007C000128A41EA0251826B127D41EA0261826B18
:1007D0009269114302689200A2F1C042C2F804116A
:1007E00007E06FF0704201688900A1F1C041C1F8D3
:1007F00004217047002101600221416000218160D5
:10080000C160016141618161C16101624FF4805148
:100810004162490081620021C1620163F84941637C
:100820008163704751B18200A2F1C042126842F068
:1008300001038200A2F1C042136009E08200A2F12C
:10084000C0421268EF4B1A408300A3F1C0431A6004
:10085000704710280AD118214FF02042116640211C
:1008600051664FF0FC319166D16610E01821E64ADE
:10087000116040214FF02042C2F884104FF0FC314B
:10088000E14A083211604FF02042C2F88C107047E4
:1008900030B5002100220023446844F00804856834
:1008A0002C43C5682C4305692C43456944EA45241B
:1008B000856944EA4531C4692468C5696D6844EABC
:1008C0000524C5692D8944EA0544C5692D7B44EAA0
:1008D0000562046A2468056A6D6844EA0524056AAD
:1008E0002D8944EA0544056A2D7B44EA05630468C2
:1008F000102C05D14FF020442166A266E36608E083
:10090000C14C21604FF02044C4F88820BE4C0C3408
:10091000236030BD10210160002141608160C16011
:10092000016141618161FC21C2691160C26951604C
:10093000C2699160C269D160026A1160026A516045
:10094000026A9160026AD160704799B1102808D19B
:100950004FF02042126E42F004024FF020431A661C
:100960001DE0A94A126842F004024FF02043C3F888
:10097000802014E0102809D14FF02042126EA14BC4
:10098000DB1E1A404FF020431A6608E09E4A1268A8
:100990009C4BDB1E1A404FF02043C3F88020704769
:1009A00099B1102808D14FF02042126E42F0400257
:1009B0004FF020431A661DE0934A126842F040024D
:1009C0004FF02043C3F8802014E0102809D14FF0E5
:1009D0002042126E8B4B3F3B1A404FF020431A6669
:1009E00008E0894A1268874B3F3B1A404FF020438A
:1009F000C3F88020704701460020102903D14FF032
:100A00002042506F02E0804A14321068704718206C
:100A10007D492031086000200906C1F8A4004FF08C
:100A2000FC30794928310860091D0860091D0860FB
:100A30007047016841F01001426841EA4221826832
:100A400041EA4231704A20321160C1680968C268C7
:100A5000526841EA0221C268128941EA0241C26831
:100A6000127B41EA0261684A283211600169096813
:100A70000269526841EA02210269128941EA02418F
:100A80000269127B41EA02615F4A2C3211604169BE
:100A900009684269526841EA02214269128941EAC1
:100AA00002414269127B41EA02614FF02042C2F8E2
:100AB000B01070470021016041608160FC21C26874
:100AC0001160C2685160C2689160C268D1600269F9
:100AD000116002695160026991600269D1604269E6
:100AE000116042695160426991604269D16070470A
:100AF00048B145492031096841F004014FF02042D6
:100B0000C2F8A01009E04049203109683D4AD21ED0
:100B100011404FF02042C2F8A010704710B5F2B15A
:100B2000102807D14FF020435B6E0B434FF0204459
:100B3000636632E0B0F5807F08D1334B1B1D1B6824
:100B40000B434FF02044C4F8843026E02E4B24336E
:100B50001B680B434FF02044C4F8A4301DE010285C
:100B600007D14FF020435B6E8B434FF02044636608
:100B700013E0B0F5807F08D1234B1B1D1B688B430E
:100B80004FF02044C4F8843007E01F4B24331B6827
:100B90008B434FF02044C4F8A43010BD10B502467A
:100BA00000200023102A03D14FF02044636E09E097
:100BB000B2F5807F03D1144C241D236802E0124C4F
:100BC0002434236803EA01040CB1012000E0002072
:100BD00010BD102807D14FF02042526E8A434FF0CB
:100BE00020435A6619E0B0F5807F0FD1064A121DE6
:100BF00012688A434FF02043C3F884200DE00000C0
:100C0000148A0008FEFF0F00800000A0234A12682B
:100C10008A434FF02043C3F8A420704770B50246C2
:100C20000020002300240025102A03D14FF0204685
:100C3000736E08E0B2F5807F03D1184E203E336812
:100C400001E0164E336803EA010403EAD10514B14A
:100C50000DB1012000E0002070BD102808D14FF038
:100C60002042526E22EAD1024FF020435A6614E02D
:100C7000B0F5807F09D1094A203A126822EAD102F0
:100C80004FF02043C3F8842007E0044A126822EAA8
:100C9000D1024FF02043C3F8A4207047A40000A065
:100CA00010B504469848844208D10121084600F056
:100CB00086FB0021012000F082FB76E0934884420D
:100CC00008D10121022000F07AFB0021022000F06F
:100CD00076FB6AE08E48844208D10121042000F0AE
:100CE0006EFB0021042000F06AFB5EE0894884422C
:100CF00008D10121082000F062FB0021082000F04B
:100D00005EFB52E08448844208D10121102000F0AB
:100D100056FB0021102000F052FB46E07F48844241
:100D200008D10121202000F04AFB0021202000F002
:100D300046FB3AE07A48844208D10121402000F085
:100D40003EFB0021402000F03AFB2EE07548844233
:100D500008D10121802000F032FB0021802000F02A
:100D60002EFB22E07048844208D10121801500F05A
:100D700026FB0021A01500F022FB16E06B48844200
:100D800008D10121401500F01AFB0021601500F088
:100D900016FB0AE06648844207D10121001500F0E5
:100DA0000EFB0021201500F00AFB10BDF0B50A462D
:100DB00000210023002400BF3DE0012505FA01F3D6
:100DC000156805EA03049C4234D105684F000326E8
:100DD000BE40B543056015794E00B5400668354301
:100DE00005601579012D02D01579022D16D185687F
:100DF0004F000326BE40B543856055794E00B5408F
:100E0000866835438560456801268E40B543456058
:100E1000456896798E40B6B235434560C5684F0047
:100E20000326BE40B543C560D5794E00B540C668BF
:100E30003543C560491C1029BFD3F0BD4FF6FF7183
:100E400001600021017141718171C171704708B564
:100E50004FF480320092009A0A430092009AC261D5
:100E6000C161009AC261C2690092C269009208BD64
:100E70000246002013690B400BB1012000E0002066
:100E800070470146086980B27047024600205369E6
:100E90000B400BB1012000E000207047014648697B
:100EA00080B2704701837047418370470AB1018364
:100EB00000E0418370474161704742694A404261A6
:100EC0007047F0B5002300244D07ED0E02FA05F33C
:100ED000CE1000F1200555F826504E07F70E0F26CC
:100EE000BE40B543CF1000F1200646F82750CE1083
:100EF00000F1200555F8265045EA0304CE1000F114
:100F0000200545F82640F0BD0000024000040240E4
:100F100000080240000C0240001002400014024091
:100F200000180240001C0240002002400024024041
:100F300000280240F948006840F00100F7490860C5
:100F40000020F64908310860F4480068F449084078
:100F5000F2490860F348091D0860F348EF498431FD
:100F60000860F0481038091D0860EC48006820F45B
:100F70008020EA4908600020E8490C310860E74910
:100F80008C31086070470021E44A921C11701146B0
:100F90000870704710B501460022002300204A1156
:100FA000012A02D1DD4C236808E0022A03D1DB4C80
:100FB0007034236802E0D94C7434236801F01F02B6
:100FC000012494401C400CB1012000E0002010BD21
:100FD00038B5002000900024002500BF3120FFF725
:100FE000D9FF05460098401C00900098B0F5A04F2E
:100FF00001D0002DF2D03120FFF7CCFF08B1012441
:1010000000E00024204638BD01460020C34A106895
:1010100020F0F80040EAC10010607047C349086042
:1010200070470021BD4A703211701170012802D042
:1010300004280AD104E00121B84A7032117005E099
:101040000521B64A7032117000E000BF00BF704742
:10105000B7490860704770B5049C41EA82150126C3
:10106000C6EB530645EA0645054345EA0465AB4E23
:10107000361D356070BDAD4908667047820142EA91
:101080000172A64B84331A607047A849886670477E
:1010900010B5830143EA016343EA02739F4C88342D
:1010A000236010BDA14908677047A049C864704714
:1010B00002460020994B0833186820F0EC6042EAA1
:1010C00001031843954B083318607047024600200F
:1010D000924B0833186820F0784042EA0103184325
:1010E0008E4B083318607047014600208B4A083247
:1010F000106820F0030008431060704787480830EC
:10110000006800F00C00704701460020834A083256
:10111000106820F0F000084310607047014600207E
:101120007E4A0832106820F4E0500843106070478F
:1011300001460020794A0832106820F4604040EAF5
:10114000C10010607047F0B5002100220024022584
:1011500000260223714F08373F6807F00C0121B1C8
:10116000042905D0082937D105E0724F076036E021
:10117000714F076033E0694F3F1D3F68C7F38056EA
:10118000664F3F1D3F6807F03F036EB16A4FB7FBE4
:10119000F3F7DFF888C10CF1040CDCF800C0CCF3E5
:1011A000881C07FB0CF40CE0624FB7FBF3F7DFF889
:1011B0006CC10CF1040CDCF800C0CCF3881C07FBFC
:1011C0000CF4564F3F1D3F68C7F301477F1C7D005D
:1011D000B4FBF5F7076002E0564F076000BF00BFA1
:1011E0004E4F08373F6807F0F0010909534F7A5C0A
:1011F0000768D7404760494F08373F6807F4E05118
:10120000890A4E4F7A5C4768D7408760434F08375A
:101210003F6807F46041490B484F7A5C4768D74004
:10122000C760F0BD002100F44072B2F5407F0AD1E2
:101230003A4A0832116821F4F811414A0240114338
:10124000364A08321160354A70321268C0F30B0317
:101250001A43324B70331A6070473549443908607D
:101260007047334940390860704736490860704715
:1012700001460020294A8C32106820F01F004A1EC7
:101280001043264A8C321060704701460020234AE2
:101290008C32106820F4F8504A1E40EA02201F4A9F
:1012A0008C3210607047014600201C4A8C32106856
:1012B00020F4401008431060704701460020174A90
:1012C0008C32106820F440000843106070470146DB
:1012D0000020124A8C32106820F44030084310601D
:1012E000704719490860704739B10C4A30321268AA
:1012F00002430A4B30331A6006E0084A3032126863
:101300008243064B30331A607047F9B1034A3432D6
:1013100012680243014B34331A601CE0003802406B
:10132000FFFFF6EA103000240030002000004742A2
:10133000800E47420024F40000127A00980000203A
:10134000FFFCFF0F5C014742E01147428F4A1268E1
:1013500082438E4B1A60704739B18C4A121D126855
:1013600002438A4B1B1D1A6006E0884A121D126850
:101370008243864B1B1D1A60704739B1834A0C3279
:1013800012680243814B0C331A6006E07F4A0C322C
:10139000126882437D4B0C331A60704739B17B4A27
:1013A000103212680243794B10331A6006E0774A14
:1013B000103212688243754B10331A60704739B18E
:1013C000724A243A12680243704B243B1A6006E0CA
:1013D0006E4A243A126882436C4B243B1A60704771
:1013E00039B16A4A203A12680243684B203B1A60BE
:1013F00006E0664A203A12688243644B203B1A603A
:10140000704739B1614A1C3A126802435F4B1C3B7A
:101410001A6006E05D4A1C3A126882435B4B1C3B33
:101420001A60704739B1594A143A12680243574B4F
:10143000143B1A6006E0554A143A12688243534B33
:10144000143B1A60704739B1504A103A126802438F
:101450004E4B103B1A6006E04C4A103A1268824329
:101460004A4B103B1A60704739B1484A1C32126827
:101470000243464B1C331A6006E0444A1C32126891
:101480008243424B1C331A60704739B13F4A2032C5
:10149000126802433D4B20331A6006E03B4A20327B
:1014A00012688243394B20331A60704739B1374A8A
:1014B000243212680243354B24331A6006E0334A63
:1014C000243212688243314B24331A60704739B199
:1014D0002E4A2C32126802432C4B2C331A6006E041
:1014E0002A4A2C3212688243284B2C331A607047E8
:1014F00039B1264A303212680243244B30331A6025
:1015000006E0224A303212688243204B30331A60A0
:101510007047012808D11D493C31096841F0080194
:101520001A4A3C32116007E018493C31096821F041
:101530000801164A3C321160704739B1134A273A04
:1015400012780243114B273B1A7006E00F4A273AE4
:10155000127882430D4B273B1A7070470B4840307E
:10156000006840F0807009494031086070470146CA
:101570000020064A283A12680A400AB1012000E019
:1015800000207047014926390870704734380240FE
:1015900010B50446FA48844208D101211020FFF713
:1015A00052FF00211020FFF74EFF57E0F54884421C
:1015B00009D101214804FFF735FF00214FF4003025
:1015C000FFF730FF4AE0F048844209D10121880446
:1015D000FFF728FF00214FF48020FFF723FF3DE0B5
:1015E000EA48844209D10121C804FFF71BFF00210A
:1015F0004FF40020FFF716FF30E0E548844209D1A0
:1016000001210805FFF70EFF00214FF48010FFF7BE
:1016100009FF23E0DF48844208D101212020FFF7A1
:1016200012FF00212020FFF70EFF17E0DA48844266
:1016300009D101218807FFF7F5FE00214FF0804016
:10164000FFF7F0FE0AE0D548844207D101214005AA
:10165000FFF7E8FE00216005FFF7E4FE10BD2DE96D
:10166000FF4705460E460024A14600BFA046B089AC
:1016700000B100BF2C8A24F44054F08804432C822B
:10168000AC8941F20C608443B08831890843718988
:1016900008430443AC81AC8A24F44074B089044309
:1016A000AC826846FFF74FFDB548854202D0B94885
:1016B000854202D1DDF80C9001E0DDF80890A889A0
:1016C00000F4004040B109EBC90000EB091031689B
:1016D0004900B0FBF1F707E009EBC90000EB091086
:1016E00031688900B0FBF1F76420B7FBF0F004012A
:1016F0002009642101FB1078A88900F4004040B162
:10170000322000EBC800B0FBF1F000F0070004430A
:1017100008E0322000EB08106421B0FBF1F000F08B
:101720000F0004432C81BDE8FF874FF41651016080
:1017300000218180C18001810C21418100218181B2
:10174000704710B502460020108A20F470600B88A4
:101750004C8823438C882343CC882343184310822E
:1017600010BD0021018041808180C180704721B17E
:10177000828942F40052828104E082894DF6FF732F
:101780001A4082817047028B02F47F420283028BEF
:101790000A430283704721B1828942F40042828168
:1017A00003E08289C2F30E028281704721B1828AEE
:1017B00042F40062828204E0828A4FF2FF731A4090
:1017C00082827047C1F30802828070470146888890
:1017D000C0F308007047028A4FF6F0731A40028285
:1017E000028A0A430282704721B1828942F00202D2
:1017F000828104E082894FF6FD731A40828170472E
:1018000082894FF2FF731A40828182890A43828162
:101810007047028A4FF6DF731A400282028A0A4337
:101820000282704721B1028A42F48042028204E0BF
:10183000028A4BF6FF731A4002827047818941F099
:1018400001018181704721B1828A42F008028282BF
:1018500004E0828A4FF6F7731A4082827047028B47
:10186000D2B20283028B42EA01220283704721B185
:10187000828A42F02002828204E0828A4FF6DF737D
:101880001A408282704721B1828A42F0100282821D
:1018900004E0828A4FF6EF731A4082827047828A90
:1018A0004FF6FB731A408282828A0A438282704713
:1018B00021B1828A42F00202828204E0828A4FF6DB
:1018C000FD731A40828270471AB1838A0B43838268
:1018D00002E0838A8B4383827047F0B5034600247D
:1018E00000260025002040F66A17B94200D100BF4B
:1018F0001846C1F3421401F01F06012707FA06F546
:10190000012C01D10C3004E0022C01D1103000E098
:1019100014301AB107682F43076002E00768AF432D
:101920000760F0BD02460020B1F5007F00D100BF86
:1019300013880B400BB1012000E00020704701F438
:101940000072B2F5007F00D100BFCA430280704729
:1019500070B50246002400230025002040F66A16D8
:10196000B14200D100BFC1F3421501F01F030126AF
:1019700006FA03F3012D13D19689334017E00000D6
:10198000001001400044004000480040004C00406E
:10199000005000400014014000780040007C0040EE
:1019A000022D02D1168A334001E0968A33400C1290
:1019B000012606FA04F41688344013B10CB1012054
:1019C00000E0002070BD10B50022002340F66A142C
:1019D000A14200D100BF0A1201249440A3B2DC430B
:1019E000048010BD10B504466FF00400FEF756FEEB
:1019F000E11704EB5171C1F3C701394A1170104668
:101A0000007800EB4001C1EBC0104FF6FF7101EA16
:101A1000C0003449088010BD0146314A12784A435B
:101A20004FF0E0235A6100229A611A46126942F08F
:101A300001021A6100BF4FF0E022106900F00102BC
:101A40001AB100F48032002AF5D04FF0E02212697A
:101A500022F001024FF0E0231A6100229A617047E0
:101A60000146204A12884A434FF0E0235A6100227F
:101A70009A611A46126942F001021A6100BF4FF0E2
:101A8000E022106900F001021AB100F48032002A4D
:101A9000F5D04FF0E022126922F001024FF0E0236E
:101AA0001A6100229A61704770B504464FF40770BE
:101AB00094FBF0F0C6B24FF4077094FBF0F100FB1A
:101AC000114085B205E04FF40770FFF7C9FF701EA3
:101AD000C6B2002EF7D115B12846FFF7C1FF70BD81
:101AE000A8000020AA0000204A0A52020243274B05
:101AF0001A6070470146072323EA01021202234BB2
:101B00001B1D18684FF6FF031840214B1843104364
:101B10001E4B1B1D186070472DE9F0410746884693
:101B200014461D462846FFF7E5FFC5F1040007FAF5
:101B300000F60F20284100EA0800064306F00F06D1
:101B4000E21704EBD2625211920002F1E022D2F8C5
:101B500000212146E31704EBD3635B11A4EB431C84
:101B6000012303FA0CF31A432046E31704EBD36373
:101B70005B119B0003F1E023C3F800210548005DE1
:101B800040EA061003490855BDE8F08108ED00E081
:101B90000000FA0500E400E000BF704700BF4C4AB7
:101BA000128802F04002002AF9D0C2B2484B9A8053
:101BB000704710B588B0044601210846FFF794FB32
:101BC00001211020FFF7EAFB072209214148FFF716
:101BD00078F907220A213F48FFF773F94FF4C060F4
:101BE000069002208DF81C008DF81D0000208DF855
:101BF0001E0001208DF81F0006A93648FFF7D6F811
:101C000002940020ADF80C00ADF80E00ADF8100005
:101C1000ADF814000C20ADF8120002A92C48FFF713
:101C20001EFD01212A48FFF7A2FD012240F22551A5
:101C30002748FFF752FE25208DF8040003208DF879
:101C400005008DF8060001208DF8070001A8FEF7B9
:101C5000D8FC08B010BD10B540F225511C48FFF764
:101C600077FE10B31A48FFF7B1FDC4B21A480088D6
:101C700000F40040C8B91848008800F4804060B102
:101C80000A2C03D000201449088020E01248008864
:101C900040F400401049088019E00D2C06D10E4890
:101CA000008840F480400C49088010E00A48008811
:101CB000C0F30D0009490C5407480088401C064930
:101CC000088008460088C72801DD0020088010BD74
:101CD0000010014000000240B0000020340100204C
:101CE00030B5CC1000F1200353F824304C07E50E3A
:101CF0000F24AC40A343CD1000F1200444F825305C
:101D0000CC1000F1200353F824304C07E40E02FA03
:101D100004F42343CD1000F1200444F8253030BDF5
:101D200070B5B04D441BA84226D009DCAE4C04442B
:101D30006CB1B4F5806F11D0B4F5006F31D114E0FF
:101D4000B4F5806F1FD0B4F5006F2AD122E0A74C04
:101D5000246844F00104A54D2C6022E0A34C2468C3
:101D600044F00204A14D2C601BE0A04C246844F018
:101D700004049E4D2C6014E09C4C246844F008043C
:101D80009A4D2C600DE0994C246844F01004974D56
:101D90002C6006E0954C246844F02004934D2C60A0
:101DA00000BF00BF32B1012A0BD0022A21D0032A82
:101DB00039D12BE004684E000325B540AC430460E4
:101DC00031E004684E000325B540AC43046004686C
:101DD0004E000125B5402C430460456801248C4029
:101DE000A543456084684E000325B5402C438460BC
:101DF00019E004684E000325B540AC430460046854
:101E00004E000325B5402C4304600CE004684E00EE
:101E10000325B540AC43046004684E000225B5407C
:101E20002C43046000BF00BF012A06D1012B04D15E
:101E3000456901248C4025434561012A05D123B918
:101E4000446901258D40AC4344610AB1022A0DD199
:101E5000012B0BD1C4684E000325B540AC43C460D0
:101E6000C4684E000125B5402C43C4600AB1022A63
:101E70000CD15BB9C4684E000325B540AC43C460C7
:101E8000C4684E000225B5402C43C46070BD10B537
:101E90003AB1012A0BD1436901248C4023434361A9
:101EA00005E0436901248C40A343436100BF00BFA8
:101EB00010BD0246106901238B40184008B1012073
:101EC00070470020FCE770B505460E4668690121A1
:101ED000B140084008B1012400E000242CB10022E8
:101EE00031462846FFF7D3FF04E001223146284659
:101EF000FFF7CDFF70BD70B532B1012A0BD0022AB9
:101F000021D0032A39D12BE004684E000325B540C7
:101F1000AC43046031E004684E000325B540AC4397
:101F2000046004684E000125B5402C4304604568F8
:101F300001248C40A543456084684E000325B540CC
:101F40002C43846019E004684E000325B540AC437F
:101F5000046004684E000325B5402C4304600CE087
:101F600004684E000325B540AC43046004684E008D
:101F70000225B5402C43046000BF00BF012A06D1F2
:101F8000012B04D1446901258D402C434461012A71
:101F900005D123B9456901248C40A54345610AB1A7
:101FA000022A0DD1012B0BD1C4684E000325B54088
:101FB000AC43C460C4684E000125B5402C43C460E6
:101FC0000AB1022A0CD15BB9C4684E000325B540A2
:101FD000AC43C460C4684E000225B5402C43C460C5
:101FE00070BD0000000C02400000FEBF303802400F
:101FF00010B5A820FFF7F6FC02F03EF84FF6FF7090
:1020000002F008F84FF4E131054801F005F84FF00F
:10201000804242F2CF0144F61F6000F003F810BD89
:102020000010014070B506460D461446F849601A86
:102030008C4235D007DCB4F1804F17D0F5482044EE
:10204000002847D11FE0B0F5806F36D0B0F5406F63
:1020500040D1F148006840F02000EF4908600223B9
:10206000372203210120FFF757FD33E0EA480068DB
:1020700040F00100E849086002231C2201210020F1
:10208000FFF74AFD26E0E448006840F00200E2491C
:10209000086002231D2203210120FFF73DFD19E006
:1020A000DD48006840F00400DB49086002231E227E
:1020B00003210120FFF730FD0CE0D748006840F015
:1020C0000800D54908600223322203210120FFF7CE
:1020D00023FD00BF00BFE6622585A08940F0010016
:1020E000A081208840F00100208070BD2DE9F041E2
:1020F00007460E4614461D46C748006840F00100DA
:10210000C54908600806C76206850CBB0123032287
:102110000021C248FFF704FE01220021BF48FFF75B
:10212000DFFD4FF08040008B40F008004FF0804111
:1021300008830846008B40F0600008830846008C46
:1021400040F0010008840846008C20F0020008845A
:10215000012C1FD1012303221946B048FFF7E0FDEF
:1021600001221146AD48FFF7BBFDA007008B40F4EC
:102170000060A10708830846008B40F4C040088334
:102180000846008C40F0100008840846008C20F0BF
:1021900020000884022C1FD1012303220A21A04819
:1021A000FFF7BEFD01220A219D48FFF799FD600758
:1021B000808B40F06000610788830846808B40F088
:1021C000080088830846008C40F480700884084624
:1021D000008C20F400700884032C21D101230322F9
:1021E0000B218F48FFF79CFD01220B218C48FFF744
:1021F00077FD4FF08040808B40F4C0404FF080412D
:1022000088830846808B40F4006088830846008CF1
:1022100040F4805008840846008C20F40050088464
:102220004FF08040008840F080004FF080410880EF
:102230000846008840F00100088034B1012C08D025
:10224000022C0AD0032C10D10BE04FF080404563E4
:102250000BE04FF08040856307E04FF08040C5639E
:1022600003E04FF08040056400BF00BFBDE8F0818F
:102270002DE9F04107460E4614461D4666480068A3
:1022800040F002006449086066480760001F06804D
:1022900024BB0123032206216048FFF741FD0222EF
:1022A00006215E48FFF71CFD5E481438008840F0A8
:1022B00008005C49143908800846008840F0600036
:1022C000088058480C38008840F0010055490C3906
:1022D00008800846008820F002000880012C24D1E4
:1022E0000123032207214D48FFF71AFD022207218F
:1022F0004A48FFF7F5FC4B481438008840F400606A
:102300004849143908800846008840F4C0400880D5
:1023100044480C38008840F0100042490C390880CD
:102320000846008820F020000880022C22D10123DA
:10233000032200213A48FFF7F3FC0222002138482B
:10234000FFF7CEFC37481038008840F06000354970
:10235000103908800846008840F008000880081DF1
:10236000008840F48070091D08800846008820F429
:1023700000700880032C22D101230322194628482B
:10238000FFF7CEFC022201212548FFF7A9FC2548D2
:102390001038008840F4C0402249103908800846AF
:1023A000008840F400600880081D008840F48050D8
:1023B000091D08800846008820F40050088019484C
:1023C0002C38008840F0800016492C3908800846D7
:1023D000008840F00100088034B1012C08D0022CA4
:1023E0000AD0032C10D10BE00E48083005600BE03A
:1023F0000C480C30056007E00A481030056003E027
:1024000008481430056000BF00BFBDE8F08100003F
:102410000008004000FCFFBF4038024000000240BE
:10242000000402402C0400402DE9F04107460E460E
:1024300014461D46F848006840F00400F64908605C
:10244000F6480760001F068024BB012303220621F3
:10245000F348FFF765FC02220621F148FFF740FC34
:10246000EE481438008840F00800EC491439088020
:102470000846008840F060000880E8480C38008872
:1024800040F00100E5490C3908800846008820F03A
:1024900002000880012C24D1012303220721E048F7
:1024A000FFF73EFC02220721DD48FFF719FCDB485D
:1024B0001438008840F40060D84914390880084670
:1024C000008840F4C0400880D4480C38008840F0B0
:1024D0001000D2490C3908800846008820F02000FE
:1024E0000880022C22D1012303220821CC48FFF7C7
:1024F00017FC02220821CA48FFF7F2FBC748103830
:10250000008840F06000C5491039088008460088FE
:1025100040F008000880081D008840F48070091D04
:1025200008800846008820F400700880032C22D11F
:10253000012303220921BA48FFF7F2FB02220921F5
:10254000B748FFF7CDFBB5481038008840F4C040CD
:10255000B249103908800846008840F400600880BD
:10256000081D008840F48050091D08800846008836
:1025700020F400500880A9482C38008840F08000E2
:10258000A6492C3908800846008840F001000880E0
:1025900034B1012C08D0022C0AD0032C10D10BE04E
:1025A0009E48083005600BE09C480C30056007E051
:1025B0009A481030056003E098481430056000BF69
:1025C00000BFBDE8F0812DE9F04107460E461446F4
:1025D0001D469148006840F008008F490860914806
:1025E0000760001F068024BB0123032200218E48C0
:1025F000FFF796FB022200218B48FFF771FB894809
:102600001438008840F008008649143908800846CC
:10261000008840F06000088082480C38008840F054
:10262000010080490C3908800846008820F002002B
:102630000880012C24D10123032219467A48FFF790
:102640006FFB022201217848FFF74AFB75481438D6
:10265000008840F4006073491439088008460088F7
:1026600040F4C04008806F480C38008840F01000EB
:102670006C490C3908800846008820F0200008804A
:10268000022C22D10123032202216748FFF748FBD5
:10269000022211466448FFF723FB62481038008885
:1026A00040F060005F49103908800846008840F01B
:1026B00008000880081D008840F48070091D08800B
:1026C0000846008820F400700880032C22D10123E2
:1026D000032211465448FFF723FB022203215248EC
:1026E000FFF7FEFA4F481038008840F4C0404D49CB
:1026F000103908800846008840F400600880081DF2
:10270000008840F48050091D08800846008820F4A5
:102710000050088043482C38008840F08000414930
:102720002C3908800846008840F00100088034B148
:10273000012C08D0022C0AD0032C10D10BE0394810
:10274000083005600BE037480C30056007E035487D
:102750001030056003E033481430056000BF00BF4F
:10276000BDE8F081C0B931B1012908D002290AD0F1
:10277000032910D10BE04FF080435A630BE04FF078
:1027800080439A6307E04FF08043DA6303E04FF041
:1027900080431A6400BF00BF012817D131B101295D
:1027A00007D0022909D003290FD10AE01F4B1A6074
:1027B0000BE01E4B1B1D1A6007E01C4B08331A6010
:1027C00003E01A4B0C331A6000BF00BF022818D177
:1027D00031B1012908D002290AD0032910D10BE018
:1027E0000E4B08331A600BE00C4B0C331A6007E0F9
:1027F0000A4B10331A6003E0084B14331A6000BF11
:1028000000BF032824D199B1012914D0022916D080
:1028100003291CD117E00000403802402C0800407A
:10282000000402402C0C0040000002403404004030
:102830009D4B1A600BE09C4B1B1D1A6007E09A4BE6
:1028400008331A6003E0984B0C331A6000BF00BFD6
:10285000704710B5044624B1012C27D0022C7DD13D
:1028600051E09248006840F001009049086002235E
:10287000032205218E48FFF753FA012205218C48D7
:10288000FFF72EFA4FF6FF704FF08041C86200202C
:1028900008850846008940F480400881002048628D
:1028A0000846008840F00100088000BF7F480068AB
:1028B00040F002007D4908600223032219467D484A
:1028C000FFF72EFA022211467A48FFF709FA4FF66F
:1028D000FF70794908600020091F08807648243875
:1028E000008840F4804074492439088000207249EF
:1028F0000839086070482C38008840F001006E49A3
:102900002C39088000BF6948006840F0040067491E
:1029100008600223032200216848FFF701FA02221F
:1029200000216648FFF7DCF94FF6FF706449086044
:102930000020091F088062482438008840F4804045
:102940005F492439088000205D49083908605C48E7
:102950002C38008840F00100594900E002E02C3991
:10296000088000BF00BF00BF10BD0146002221B19A
:1029700001290CD002291ED113E04FF08040406A9B
:1029800082B200204FF080435862104670474A4898
:102990000838006882B20020474B083B1860104698
:1029A000F4E747480838006882B20020444B083BEF
:1029B00018601046EAE70020E8E710B5044614B1B5
:1029C000012C55D125E03948001D006840F0010078
:1029D0003649091D08600223032207213748FFF703
:1029E0009FF9012207213548FFF77AF94FF6FF706A
:1029F0003449C862002008850846008940F48040B8
:102A00000881002048620846008840F001000880E4
:102A10002EE02648001D006840F002002349091DF1
:102A200008600223032200212148FFF779F90322DD
:102A300000211F48FFF754F94FF6FF702249086044
:102A40000020091F088020482438008840F4804076
:102A50001D492439088000201B49083908601A489C
:102A60002C38008840F0010017492C39088000BF3D
:102A700000BF10BD0146002211B1012912D107E0AB
:102A80001048406A82B200200E4B586210467047D0
:102A90000D480838006882B200200B4B083B1860D4
:102AA0001046F4E70020F2E7340C004040380240C2
:102AB00000000240000C02402C04004000100240C4
:102AC0002C080040000001402C040140854800888B
:102AD00000F0010028B18348008820F001008149FE
:102AE000088070474FF08040008A00F00100002805
:102AF0004AD04FF08040008A20F001004FF0804122
:102B000008827948007800283ED078480078401C38
:102B10007649087008460078082807DD002008700C
:102B200074207349C86072207249C8606F48007889
:102B3000001F052827D2DFE800F0030A11181F0044
:102B400034206B49C860B9206A49C8601BE0342052
:102B50006749C86030206749C86014E0CB206449E9
:102B6000C86030206349C8600DE0CA206049C86071
:102B7000B9206049C86006E034205D49C860B920CA
:102B80005C49C86000BF00BF70475B48008800F028
:102B9000010028B15848008820F0010056490880FB
:102BA00070475648008800F0010028B1534800885B
:102BB00020F001005149088070475148008800F01A
:102BC000010028B14E48008820F001004C490880DF
:102BD00070474C48008870474B480088704710B5D4
:102BE000B3EE040A494880ED000AB3EE040A4848EF
:102BF00080ED000A9FED470A444880ED010A9FEDF1
:102C0000450A434880ED010A00204049C860404918
:102C1000C8609FED410A364880ED000A9FED3F0AEB
:102C200080ED010A9FED3C0A324880ED000A9FEDDD
:102C30003B0A80ED010A3A48008800F02000002895
:102C40004ED03748FEF7C2FDC4B2204600F0F9FA74
:102C500034480078002843D00020324908703248B8
:102C6000B0F90000314908803148B0F9000031491D
:102C700008802E48008830490988401A00B22F4940
:102C800008802C4800882E490988401A00B22D4936
:102C900008802648B0F90000274908802548B0F987
:102CA00000002749088005F053FB05F092FA05F073
:102CB0000AFA1648008A40F63451081A82B20221F4
:102CC0000846FFF74FFD05F0CBFA05F03FFA104834
:102CD000008A00F67C3082B203210220FFF742FD19
:102CE00010BD000010140040C3000020C4000020EC
:102CF0003402002048020020100400401008004068
:102D0000100C004000440040004800400C0200202D
:102D10002002002000000000AE47613EAE47213F88
:102D200000140140C2000020B2000020B6000020C4
:102D3000B4000020B8000020BA000020BE0000202F
:102D4000BC000020C000002010B501231A46082155
:102D5000AE48FEF7E5FF01231A460921AB48FEF70E
:102D6000DFFF002301220F21A848FEF7D9FF10BD85
:102D700010B501231A460821A448FEF7D1FF01200F
:102D8000A3490860A349C1F8A4020420FEF744FE49
:102D900000209F4908600420FEF73EFE00209D4968
:102DA000C1F8A40210BD10B501231A4608219748A6
:102DB000FEF7B6FF00209649091D08609549C1F845
:102DC000A0020420FEF728FE01209149091D086099
:102DD0009049C1F8A0020420FEF71EFE10BD10B5F8
:102DE00000240123002208218848FEF799FF0120D2
:102DF00087490860FEF710FE01208649C1F8A40249
:102E0000FEF70AFE07E0601CC4B2FA2C03DDFFF7F0
:102E1000CAFF012010BD7E48803800680028F2D12A
:102E20007B49091D086000BFF4E710B50020784910
:102E3000091D086001231A4608217448FEF770FF37
:102E400000207449C1F8A0020220FEF7E5FD012030
:102E50006F49091D08600220FEF7DEFD00206D4964
:102E6000C1F8A40210BD10B500206949091D086011
:102E700001231A4608216548FEF752FF01206549E3
:102E8000C1F8A0020220FEF7C7FD01206049091D1C
:102E900008600220FEF7C0FD00205E49C1F8A402D0
:102EA00010BD70B5044601231A4608215748FEF7A5
:102EB00037FF00205649091D086000251DE0E00984
:102EC00018B101205249086002E000205049086012
:102ED0006006040E0220FEF79FFD01204C49091DEB
:102EE00008600220FEF798FD00204A49C1F8A402BC
:102EF0000220FEF791FD681CC5B2082DDFDBFFF74D
:102F00006EFF70BD70B50546002401230022082124
:102F10003E48FEF705FF002617E000203C49091D4A
:102F200008600220FEF778FD01203A49C1F8A402AA
:102F30006006040E36488038006808B1601CC4B2D0
:102F40000220FEF769FD701CC6B2082EE5DB15B93C
:102F5000FFF789FF01E0FFF768FF204670BD70B5FD
:102F600006460C461546FFF703FF002141EA4501DE
:102F7000C8B2FFF796FF03E0FFF715FF012070BD11
:102F8000FFF72DFF0028F7D13046FFF78AFFFFF744
:102F900026FF2046FFF785FF03E0FFF704FF01202F
:102FA000EDE7FFF71CFF0028F7D1FFF7FCFE00203C
:102FB000E5E770B505460C460026FFF7D9FE00216F
:102FC00041EA4401C8B2FFF76CFF03E0FFF7EBFEF4
:102FD000012070BDFFF703FF0028F7D12846FFF757
:102FE00060FFFFF7FCFEFFF7C3FE012101EB440188
:102FF000C8B2FFF756FFFFF7F2FE0020FFF782FF8F
:103000000646FFF7D0FE3046E3E70000001402401A
:10301000A0824242008042422DE9F0412DED028B18
:1030200004460E46A348844202D0A348844209D1F4
:10303000300100EE100AB8EE400ADFEDA00A80EE83
:10304000808A08E0300100EE100AB8EE400ADFED99
:103050009C0A80EE808ABCEEC80A10EE105A00EE80
:10306000105AB8EE400A38EE400ABCEEC00A10EE24
:10307000100A07012D013D439248204430B3B0F5BA
:10308000806F42D0B0F54C4F03D0B0F5504F78D19F
:103090005AE08D48006840F010008B490860022318
:1030A000032209218948FEF73BFE072209218748B0
:1030B000FEF716FE022303220A218448FEF730FEA3
:1030C00007220A218148FEF70BFE5AE07E48001FC6
:1030D000006840F400307C49091F08600223032285
:1030E00019467A48FEF71CFE072202217748FEF7B0
:1030F000F7FD0223032211467448FEF711FE072252
:1031000003217248FEF7ECFD3BE06F48001F0068AA
:1031100040F480206C49091F0860022303220A2121
:103120006B48FEF7FDFD07220A216948FEF7D8FD2E
:10313000022303220B216648FEF7F2FD07220B2132
:103140006348FEF7CDFD1CE05F48006840F02000BA
:103150005D4908600223032206215E48FEF7E0FD78
:10316000082206215B48FEF7BBFD0223032207214C
:103170005848FEF7D5FD082207215648FEF7B0FD56
:1031800000BF00BF2089A9B208432081A08940F078
:103190000800A081A08940F00400A081A08940F02F
:1031A0002000A0814748204480B1B0F5806F14D042
:1031B000B0F54C4F03D0B0F5504F1CD114E00223B2
:1031C000252219460120FEF7A7FC14E0022326223F
:1031D00019460120FEF7A0FC0DE002232722194624
:1031E0000120FEF799FC06E0022347221946012040
:1031F000FEF792FC00BF00BFA08940F40050A08100
:10320000208820F040002080BDEC028BBDE8F081DA
:10321000028822F040020280818000BF028802F012
:103220004002002AFAD0704710B50B4642782A4C6B
:1032300022608178294C2160294C2280294C2180F0
:1032400010BD10B504462848007828B9AA2C03D12F
:103250000120254908702BE023480078012808D177
:10326000AE2C06D102202049087000201F490870AA
:103270001EE01D480078022817D11C480078401C29
:10328000C0B21A4908701A490C541848007802282C
:103290000EDB002014490870144801781448FFF729
:1032A000C3FF01201349087002E000200E49087096
:1032B00010BD00000014014000100140A037A04CD8
:1032C000A037204C00BCFFBF443802400000024041
:1032D0000004024000080240C8000020CC0000208A
:1032E000B2000020B4000020D5000020D40000204F
:1032F000D0000020C200002001B5BDF80000009001
:10330000BDF80000F849088008BD01B5BDF800000F
:103310000090BDF80000F449891C088008BD08B57C
:10332000F148801C00880090BDF8000008BDEE4AFE
:1033300010804FF0D842A2F88010704710B50446B4
:103340002046FFF7D9FF0520FEF766FBFFF7E7FFF2
:1033500010BDE6480089E44908807047E249891CAD
:103360000880704730B5014601F01F04C1F34513D2
:10337000CA0AE50205EB43151544A8B230BD00BFEB
:103380000100A0F10102D0B2FAD1704730B5044675
:103390000D46D648808849F24131884205D0D3484D
:1033A000808845F21031884214D1D0494889FFF70E
:1033B000A3FF2012FFF7A9FFE0B2FFF7A6FFCB495A
:1033C0008889FFF799FF2812FFF79FFFE8B2FFF700
:1033D0009CFFABE0C548808846F6040188421DD1B9
:1033E000C2488079012804D1C0480088401E001BD3
:1033F00084B2BE494889FFF77FFF2012FFF785FF9F
:10340000E0B2FFF782FFB9498889FFF775FF2812FC
:10341000FFF77BFFE8B2FFF778FF87E0B3488088CB
:1034200041F66311884247D1B0488079A8B9AF48C6
:103430000088401E001B84B2AC494889FFF75CFF3E
:103440000020FFF762FF0020FFF75FFF2012FFF769
:103450005CFFE0B2FFF759FF16E0A4494889FFF787
:103460004BFF2012FFF751FFE0B2FFF74EFF9F49DD
:103470000988491EC1F30F20FFF747FF9B490978D0
:10348000491EC8B2FFF741FF98498889FFF734FF0A
:103490002812FFF73AFFE8B2FFF737FF9349498850
:1034A000491EC1F30F20FFF730FF90498978491E6C
:1034B000C8B2FFF72AFF39E08C48808845F21051E6
:1034C000884220D189494889FFF716FF2012FFF76B
:1034D0001CFF86494989491C88B2FFF70DFFE0B2FD
:1034E000FFF713FF81498889FFF706FF2812FFF7CE
:1034F0000CFF7E498989491C88B2FFF7FDFEE8B2BE
:10350000FFF703FF12E079488079012804D177485A
:103510000088401E001B84B2744948892146FFF789
:1035200006FF724988892946FFF701FF30BD2DE962
:10353000F04105460E4600240027A0466B4800884F
:10354000A84203DD69484088B04202DC0020BDE8A3
:10355000F08131462846FFF719FF6448808849F218
:103560004131884211D06148808846F60401884282
:103570000BD05E48808845F21031884205D05B4808
:10358000808841F66311884203D12E20FFF7B4FEF4
:103590000DE05648808845F21051884204D14FF41E
:1035A0003850FFF7A9FE02E02220FFF7A5FE4F48A2
:1035B000808849F22031884202D10220FFF7DFFEE5
:1035C000FFF7ADFE04464948808841F66311884202
:1035D00001D12046BBE70220FFF7D1FEFFF79FFE97
:1035E00004464248808849F2413188420BD03F4826
:1035F000808845F21031884205D03C48808845F2E9
:10360000105188420AD10220FFF7B9FEFFF787FE6A
:103610008046E7B24FF6FF7000EA072733488088FC
:1036200049F22531884216D03048808844F235511D
:10363000884210D02D488088091F88420BD02B4823
:1036400080884BF20551884205D0284880884CF28A
:103650000551884201D1204679E72448808849F203
:10366000413188420BD02148808845F21031884290
:1036700005D01E48808845F21051884207D1E012DB
:10368000C002B91240EA411040EAE8205FE7204654
:10369000FFF768FE5BE700B51448808849F24131C6
:1036A000884211D01148808846F6040188420BD028
:1036B0000E48808845F21031884205D00B4880883A
:1036C00041F66311884203D12920FFF715FE14E06B
:1036D0000648808845F21051884209D14FF42450A1
:1036E000FFF70AFE09E000007E00006CFC010020EC
:1036F00040F273110720FFF71AFE00BD00B5FD4828
:10370000808849F24131884211D0FA48808846F6D3
:10371000040188420BD0F748808845F21031884276
:1037200005D0F448808841F66311884203D12820EF
:10373000FFF7E2FD0EE0EF48808845F21051884225
:1037400004D14FF42050FFF7D7FD03E000210720FC
:10375000FFF7EDFD00BDF0B5054600240027E54864
:10376000807901280BD1E348808846F6040188421D
:1037700005D0E048808841F66311884208D1DD48D1
:103780008079F0B9DB48808841F66311884218D10E
:10379000082D15D2DFE805F00406080A0C0E1012F9
:1037A00006250DE007250BE0042509E0052507E0C7
:1037B000012505E0002503E0032501E0022500BF07
:1037C00000BFCC48808849F24131884217D0C948AF
:1037D000808846F60401884211D0C648808845F2A8
:1037E000103188420BD0C348808845F2105188427E
:1037F00005D0C048808841F6631188427ED1082DEB
:103800001CD2DFE805F00406090C0F12151800BFE2
:1038100014E044F0800411E044F040040EE044F071
:10382000C0040BE044F0200408E044F0600405E02C
:1038300044F0A00402E044F0E00400BF00BFAD4843
:10384000808845F21051884202D14FF4585700E069
:103850003627A848808845F2103188420DD0A54807
:10386000808845F21051884207D0A248808841F6EE
:103870006311884201D044F008049E48808846F6CF
:103880000401884201D144F0020421463846FFF782
:103890004EFD9848808841F6631188421DD004F09F
:1038A000200068B19348008892494988884214DA18
:1038B0009048068840888F490880084646800CE07A
:1038C0008C4800888B494988884206DD89480688EB
:1038D000408888490880084646808648808845F2A6
:1038E0001051884254D183494889FFF705FD0020D3
:1038F000FFF70BFD7F494989491C00E077E088B25A
:10390000FFF7FAFC0020FFF700FD7A494989891C7E
:1039100088B2FFF7F1FC77490988491EC1F30F20EF
:10392000FFF7F3FC73494989C91C88B2FFF7E4FC2F
:1039300070490978491EC8B2FFF7E7FC6D498889CC
:10394000FFF7DAFC0020FFF7E0FC6A498989491C8F
:1039500088B2FFF7D1FC0020FFF7D7FC65498989C1
:10396000891C88B2FFF7C8FC62494988491EC1F327
:103970000F20FFF7CAFC5F498989C91C88B2FFF78D
:10398000BBFC5C498978491EC8B2FFF7BEFC55E014
:1039900058494889FFF7B0FC0020FFF7B6FC00202B
:1039A000FFF7B3FC53490988491EC1F30F20FFF705
:1039B000ACFC50490978491EC8B2FFF7A6FC4D4936
:1039C0008889FFF799FC0020FFF79FFC0020FFF794
:1039D0009CFC48494988491EC1F30F20FFF795FC1C
:1039E00044498978491EC8B2FFF78FFC26E0082DAC
:1039F0001CD2DFE805F004070A0D0F12151844F079
:103A0000300413E044F0100410E044F020040DE012
:103A100000BF0BE044F0380408E044F0280405E05F
:103A200044F0180402E044F0080400BF00BF03277C
:103A300044F4805421463846FFF779FCF0BD30B598
:103A400004460D4629462046FFF7A0FCFFF781FCFF
:103A5000294800882949088030BD70B504460D46C4
:103A600016462448808849F24131884205D02148D1
:103A7000808845F21031884214D11E494889FFF7E9
:103A80003BFC2012FFF741FCE0B2FFF73EFC194976
:103A90008889FFF731FC2812FFF737FCE8B2FFF7FF
:103AA00034FC93E01348808845F21051884227D1B6
:103AB00010494889FFF720FC2012FFF726FC0D492A
:103AC0004989491C88B2FFF717FCE0B2FFF71DFCDB
:103AD00008498889FFF710FC2812FFF716FC0549F2
:103AE0008989491C88B2FFF707FCE8B2FFF70DFC93
:103AF0006CE00000FC010020D60000208000006C7B
:103B0000FE48808841F66311884228D1FB488079BD
:103B100020B9FA480088401E001B84B2F749488942
:103B2000FFF7EAFB2012FFF7F0FBE0B2FFF7EDFB37
:103B30002012FFF7EAFBE0B2FFF7E7FBEF498889C5
:103B4000FFF7DAFB2812FFF7E0FBE8B2FFF7DDFB37
:103B50002812FFF7DAFBE8B2FFF7D7FB36E0E748B9
:103B6000808846F6040188421DD1E4488079012806
:103B700004D1E2480088401E001B84B2DF49488916
:103B8000FFF7BAFB2012FFF7C0FBE0B2FFF7BDFB67
:103B9000DA498889FFF7B0FB2812FFF7B6FBE8B2D5
:103BA000FFF7B3FB12E0D5488079012804D1D34850
:103BB0000088401E001B84B2D04948892146FFF787
:103BC000B6FBCE4988892946FFF7B1FBCB4800896F
:103BD000CB4908804FF0D840A0F8806070BD70B528
:103BE0002DED048B0446BE20FFF786FB0520FFF772
:103BF0008CFB204604F0F7FD41EC190B9FEDC10B47
:103C000053EC102B04F002FE41EC180B04F0BEFD47
:103C100085B22846FFF779FB0120FFF776FBFF20EE
:103C2000FFF773FB0020FFF770FB0020FFF76DFB31
:103C3000BDEC048B70BD10B50446002C66D1AF49B5
:103C40008871F02008804FF4A07048800846808872
:103C500049F2413188420BD0A848808846F60401D9
:103C6000884205D0A548808845F2103188421AD193
:103C70002C20A24908812A2048812B2088810846CF
:103C8000808846F60401884205D09C48808845F229
:103C90001031884206D14FF4A070984908804FF443
:103CA000F0704880A1E09548808845F21051884224
:103CB00010D14FF43050914908814FF42850488179
:103CC0004FF42C5088814FF4F07008804FF4487006
:103CD00048808AE08948808841F6631188420DD186
:103CE0002C20864908812B2048812A2088814FF486
:103CF000F07008804FF44870488076E022207F49B9
:103D0000088120204881212088816EE001207B49A4
:103D100088714FF4A0700880F020488008468088A1
:103D200049F24131884205D07448808845F210310B
:103D3000884207D12C20714908812A2048812B20F4
:103D400088813FE06D48808846F60401884207D1AB
:103D50002C206A4908812B2048812A20888131E063
:103D60006648808845F21051884210D14FF4305097
:103D7000624908814FF4285048814FF42C508881C3
:103D80004FF4487008804FF4F07048801AE05B48A8
:103D9000808841F6631188420DD12C205749088153
:103DA0002A2048812B2088814FF4487008804FF4E6
:103DB000F070488006E02220504908812120488187
:103DC000202088814D48808846F60401884205D02D
:103DD0004A48808845F21031884206D14FF4F0708D
:103DE000464908804FF4A07048800020FFF7B3FCDC
:103DF00010BD2DE9F04F86B004460D469046994619
:103E000004EB0800401E86B205EB0900401E87B295
:103E10003A48808849F24131884215D03748808835
:103E200045F2103188420FD03448808846F60401AC
:103E3000884209D031488079012826D12F488088CE
:103E400041F66311884220D12C494889FFF754FA82
:103E50002012FFF75AFAE0B2FFF757FA3012FFF7D5
:103E600054FAF0B2FFF751FA24498889FFF744FA6F
:103E70002812FFF74AFAE8B2FFF747FA3812FFF7BD
:103E800044FAF8B2FFF741FAC1E01C48808841F6D5
:103E9000631188423DD119480088A0EB0800001B3F
:103EA00084B205EB0900401E1FFA80F913494889C6
:103EB000FFF722FA2012FFF728FAE0B2FFF725FAFF
:103EC00004EB0801491EC1F30F20FFF71EFA04EBB3
:103ED0000801491EC8B2FFF718FA08498889FFF798
:103EE0000BFA2812FFF711FAE8B2FFF70EFA4FEAC1
:103EF0002920FFF70AFA09F0FF0007E0FC01002083
:103F00007E00006C6666666666660440FFF7FDF933
:103F10007DE0FE48808845F21051884244D1FB493B
:103F20004889FFF7E9F92012FFF7EFF9F7494989C6
:103F3000491C88B2FFF7E0F9E0B2FFF7E6F9F34970
:103F40004989891C88B2FFF7D7F93012FFF7DDF9EC
:103F5000EE494989C91C88B2FFF7CEF9F0B2FFF7E4
:103F6000D4F9EA498889FFF7C7F92812FFF7CDF994
:103F7000E6498989491C88B2FFF7BEF9E8B2FFF724
:103F8000C4F9E2498989891C88B2FFF7B5F938126A
:103F9000FFF7BBF9DD498989C91C88B2FFF7ACF985
:103FA000F8B2FFF7B2F932E0D848807901280ED193
:103FB000AA46BB46D5480088801B401E80B20190AF
:103FC000D2480088001B401E80B2009003E0A24649
:103FD000B34601950097502005905120049052203F
:103FE00003905320029051460598FFF7A0F95946D7
:103FF0000498FFF79CF901990398FFF798F9009945
:104000000298FFF794F929462046FFF7BFF906B05A
:10401000BDE8F08F70B504460026BC48058840888E
:104020004543BA48808846F60401884216D1B7480D
:104030008079012812D10020B44988712A20488152
:104040002B20888100210846FFF7A0F90120AF4905
:1040500088712B2048812A20888103E000210846AE
:10406000FFF794F9FFF775F9002602E0A8480480ED
:10407000761CAE42FAD370BD00B5A1B000202090EE
:1040800001217A20FDF730F901210846FDF764F996
:104090004FF400401E9001208DF87C0000208DF828
:1040A0007E0002208DF87D0001208DF87F001EA982
:1040B0009848FCF77BFE4CF233701E9002208DF87E
:1040C0007C0000208DF87E0003208DF87D0001200B
:1040D0008DF87F001EA99048FCF768FE4FF68070AF
:1040E0001E9002208DF87C0000208DF87E000320B9
:1040F0008DF87D0001208DF87F001EA98748FCF710
:1041000055FE4FF480501E9002208DF87C00002058
:104110008DF87E0003208DF87D0001208DF87F0052
:104120001EA97F48FCF742FE4FF480501E900220EB
:104130008DF87C0000208DF87E0003208DF87D0036
:1041400001208DF87F001EA97648FCF72FFE0C2277
:1041500000217148FCF7B5FE0C2201216E48FCF7E6
:10416000B0FE0C2204216C48FCF7ABFE0C220521AA
:104170006948FCF7A6FE0C2208216748FCF7A1FE5F
:104180000C2209216448FCF79CFE0C220A2162489B
:10419000FCF797FE0C220E215F48FCF792FE0C22E2
:1041A0000F215D48FCF78DFE0C2207215B48FCF7D0
:1041B00088FE0C2208215948FCF783FE0C220921B5
:1041C0005648FCF77EFE0C220A215448FCF779FE83
:1041D0000C220B215148FCF774FE0C2211464F486B
:1041E000FCF76FFE0C220D214C48FCF76AFE0C22F6
:1041F0000E214A48FCF765FE0C220F214748FCF7C8
:1042000060FE0C2211464648FCF75BFE0C2211466C
:104210004448FCF756FE0F200890002009903C20EF
:104220000A9000200B900C900D900E9009200190A8
:104230000020029008200390002004900590069032
:10424000079006200F9000201090119010201290DF
:104250000020139015901490169017904FF48050F2
:104260001890002019904FF480401A9000201B9065
:1042700008A81C9001A81D900FA8FCF748FA01217E
:104280000620FCF7CFFA3220FDF70EFC01210020BA
:10429000FFF74DF83220FDF707FC0020FFF74EF83E
:1042A0001A49888008468088FF280ADB08468088EB
:1042B0004FF6FF71884204D014488088B0F5134F40
:1042C0007ED1D320FFF718F8FFF729F80F4988802F
:1042D000FFF725F80D498880FFF721F80B49888002
:1042E000084680884FF6FF7101EA00200749888060
:1042F000FFF715F80549898808430449888008466E
:10430000808849F2413188425AD00DE0FC010020FA
:104310008000006C00040240000C024000100240CB
:104320000014024000180240BF20FEF7E5FFFEF730
:10433000F6FFFE498880FEF7F2FFFC498880FEF711
:10434000EEFFFA498880FEF7EAFFF84988800846C0
:1043500080884FF6FF7101EA0020F4498880FEF75B
:10436000DEFFF24989880843F04988800846808842
:1043700046F6040188427AD0D420FEF7BDFFFEF74E
:10438000CEFFEA498880FEF7CAFFE8498880FEF739
:10439000C6FFE6498880084680884FF6FF7101EA2B
:1043A0000020E2498880FEF7BAFFE0498988084387
:1043B000DE4988800846808845F21031884200E056
:1043C00055E054D04FF45A40FEF796FFFEF7A7FF92
:1043D000D64988804FF45B40FEF78EFFFEF79FFFC3
:1043E000D2498880084680884FF6FF7101EA002094
:1043F000CE4988804FF45C40FEF77EFFFEF78FFFCA
:10440000CA4989880843C949888008468088B0F528
:10441000004F02D145F210508880C448808845F290
:104420001051884223D0A120FEF766FFFEF777FFE8
:10443000BE498880FEF773FFBC49888008468088A3
:104440004FF6FF7101EA0020B8498880FEF767FF48
:10445000B64989880843B54988800846808845F26E
:104460006171884203D141F66310B0498880AF483A
:10447000808849F24131884211D0AC48808845F2A9
:10448000103188420BD0A948808845F210518842EB
:1044900005D0A648808841F6631188421DD1A44802
:1044A000006820F00F004FF02041C1F81C010846C1
:1044B000D0F81C0120F47060C1F81C010846D0F847
:1044C0001C0140F00300C1F81C010846D0F81C0193
:1044D00040F40070C1F81C0128E09448808846F63A
:1044E0000401884205D0914880884CF205518842E9
:1044F0001CD18F48006820F00F004FF02041C1F818
:104500001C010846D0F81C0120F47060C1F81C01A1
:104510000846D0F81C0140F00A00C1F81C0108460A
:10452000D0F81C0140F44060C1F81C017F4880882D
:1045300049F2413188427CD1CF20FEF7DDFE0020D8
:10454000FEF7E3FEC120FEF7E0FE3020FEF7DDFEC1
:10455000ED20FEF7D1FE6420FEF7D7FE0320FEF724
:10456000D4FE1220FEF7D1FE8120FEF7CEFEE82019
:10457000FEF7C2FE8520FEF7C8FE1020FEF7C5FE3E
:104580007A20FEF7C2FECB20FEF7B6FE3920FEF7FA
:10459000BCFE2C20FEF7B9FE0020FEF7B6FE34204C
:1045A000FEF7B3FE0220FEF7B0FEF720FEF7A4FEF2
:1045B0002020FEF7AAFEEA20FEF79EFE0020FEF76E
:1045C000A4FE0020FEF7A1FEC020FEF795FE1B20F2
:1045D000FEF79BFEC120FEF78FFE0120FEF795FE41
:1045E000C520FEF789FE3020FEF78FFE3020FEF753
:1045F0008CFEC720FEF780FEB720FEF786FE362031
:10460000FEF77AFE4820FEF780FE3A20FEF774FEA1
:104610005520FEF77AFEB120FEF76EFE0020FEF771
:1046200074FE1A20FEF771FEB620FEF765FE0A2022
:1046300000E09EE0FEF769FEA220FEF766FEF22093
:10464000FEF75AFE0020FEF760FE2620FEF754FE1D
:104650000120FEF75AFEE020FEF74EFE0F20FEF787
:1046600054FE2A20FEF751FE2820FEF74EFE0820B9
:10467000FEF74BFE0E20FEF748FE0820FEF745FE33
:104680005420FEF742FEA920FEF73FFE4320FEF72E
:104690003CFE0A20FEF739FE0F20FEF736FE002012
:1046A000FEF733FE0020FEF730FE0020FEF72DFE61
:1046B0000020FEF72AFEE120FEF71EFE0020FEF796
:1046C00024FE1520FEF721FE1720FEF71EFE072010
:1046D000FEF71BFE1120FEF718FE0620FEF715FE62
:1046E0002B20FEF712FE5620FEF70FFE3C20FEF7B1
:1046F0000CFE0520FEF709FE1020FEF706FE0F2037
:10470000FEF703FE3F20FEF700FE3F20FEF7FDFD13
:104710000F20FEF7FAFD2B20FEF7EEFD0020FEF73E
:10472000F4FD0020FEF7F1FD012003E0FC01002074
:104730001C0100A0FEF7E9FD3F20FEF7E6FD2A2060
:10474000FEF7DAFD0020FEF7E0FD0020FEF7DDFDBC
:104750000020FEF7DAFDEF20FEF7D7FD1120FEF76F
:10476000CBFD7820FDF7A0F92920FEF7C5FD03F069
:104770001DB9FE48808846F6040188427ED111208A
:10478000FEF7BAFD1420FDF78FF9D020FEF7B4FD37
:104790000720FEF7BAFD4220FEF7B7FD1D20FEF709
:1047A000B4FDD120FEF7A8FD0020FEF7AEFD1A20D3
:1047B000FEF7ABFD0920FEF7A8FDD220FEF79CFD19
:1047C0000120FEF7A2FD2220FEF79FFDC020FEF78C
:1047D00093FD1020FEF799FD3B20FEF796FD00208B
:1047E000FEF793FD0220FEF790FD1120FEF78DFDF0
:1047F000C520FEF781FD0320FEF787FDC820FEF7E8
:104800007BFD0020FEF781FD2520FEF77EFD2120A7
:10481000FEF77BFD0520FEF778FD0020FEF775FD15
:104820000A20FEF772FD6520FEF76FFD2520FEF7DA
:104830006CFD7720FEF769FD5020FEF766FD0F2026
:10484000FEF763FD0020FEF760FDF820FEF754FD43
:104850000120FEF75AFDFE20FEF74EFD0020FEF778
:1048600054FD0220FEF751FD2020FEF745FD3620C5
:10487000FEF742FD0820FEF748FD00E02AE03A205E
:10488000FEF73AFD5520FEF740FD2B20FEF734FDE4
:104890000020FEF73AFD0020FEF737FD0120FEF76D
:1048A00034FD3F20FEF731FD2A20FEF725FD0020D4
:1048B000FEF72BFD0020FEF728FD0120FEF725FD69
:1048C000DF20FEF722FD7820FDF7EEF82920FEF725
:1048D00013FD4CE7A548808845F21031884240F02E
:1048E0007C87ED20FEF708FD0120FEF70EFDFE207F
:1048F000FEF70BFDEE20FEF7FFFCDE20FEF705FDC8
:104900002120FEF702FDF120FEF7F6FC0120FEF764
:10491000FCFCDF20FEF7F0FC1020FEF7F6FCC420C4
:10492000FEF7EAFC8F20FEF7F0FCC620FEF7E4FC61
:104930000020FEF7EAFCE220FEF7E7FCE220FEF7AB
:10494000E4FCE220FEF7E1FCBF20FEF7D5FCAA2044
:10495000FEF7DBFCB020FEF7CFFC0D20FEF7D5FC08
:104960000020FEF7D2FC0D20FEF7CFFC0020FEF762
:10497000CCFC1120FEF7C9FC0020FEF7C6FC192074
:10498000FEF7C3FC0020FEF7C0FC2120FEF7BDFCB3
:104990000020FEF7BAFC2D20FEF7B7FC0020FEF742
:1049A000B4FC3D20FEF7B1FC0020FEF7AEFC5D201C
:1049B000FEF7ABFC0020FEF7A8FC5D20FEF7A5FC8F
:1049C0000020FEF7A2FCB120FEF796FC8020FEF747
:1049D0009CFC0020FEF799FC8B20FEF796FC002043
:1049E000FEF793FC9620FEF790FC0020FEF78DFC6E
:1049F000B220FEF781FC0020FEF787FC0020FEF7C6
:104A000084FC0220FEF781FC0020FEF77EFC0320E0
:104A1000FEF77BFC0020FEF778FCB320FEF76CFC71
:104A20000020FEF772FC0020FEF76FFC0020FEF76E
:104A30006CFC0020FEF769FC0020FEF766FC0020FD
:104A4000FEF763FC0020FEF760FC0020FEF75DFC33
:104A50000020FEF75AFC0020FEF757FC0020FEF76E
:104A600054FC0020FEF751FC0020FEF74EFC002015
:104A7000FEF74BFC0020FEF748FC0020FEF745FC4B
:104A80000020FEF742FC0020FEF73FFC0020FEF76E
:104A90003CFC0020FEF739FC0020FEF736FC00202D
:104AA000FEF733FC0020FEF730FC0020FEF72DFC63
:104AB000B420FEF721FC8B20FEF727FC0020FEF738
:104AC00024FC9620FEF721FC0020FEF71EFCA1200E
:104AD000FEF71BFC0020FEF718FCB520FEF70CFCCF
:104AE0000220FEF712FC0020FEF70FFC0320FEF769
:104AF0000CFC0020FEF709FC0420FEF706FC002059
:104B0000FEF703FCB620FEF7F7FB0020FEF7FDFBE7
:104B10000020FEF7FAFBB720FEF7EEFB0020FEF7C1
:104B2000F4FB0020FEF7F1FB3F20FEF7EEFB002038
:104B3000FEF7EBFB5E20FEF7E8FB0020FEF7E5FB4F
:104B40006420FEF7E2FB0020FEF7DFFB8C20FEF77F
:104B5000DCFB0020FEF7D9FBAC20FEF7D6FB0020E3
:104B6000FEF7D3FBDC20FEF7D0FB01E0FC010020C8
:104B70000020FEF7CAFB7020FEF7C7FB0020FEF7FF
:104B8000C4FB9020FEF7C1FB0020FEF7BEFBEB202C
:104B9000FEF7BBFB0020FEF7B8FBDC20FEF7B5FB01
:104BA0000020FEF7B2FBB820FEF7A6FB0020FEF7C0
:104BB000ACFB0020FEF7A9FB0020FEF7A6FB0020BF
:104BC000FEF7A3FB0020FEF7A0FB0020FEF79DFBF5
:104BD0000020FEF79AFB0020FEF797FBBA20FEF7B5
:104BE0008BFB2420FEF791FB0020FEF78EFB0020BC
:104BF000FEF78BFB0020FEF788FBC120FEF77CFB55
:104C00002020FEF782FB0020FEF77FFB5420FEF7FA
:104C10007CFB0020FEF779FBFF20FEF776FB0020EF
:104C2000FEF773FBC220FEF767FB0A20FEF76DFB61
:104C30000020FEF76AFB0420FEF767FB0020FEF76A
:104C400064FBC320FEF758FB3C20FEF75EFB002010
:104C5000FEF75BFB3A20FEF758FB0020FEF755FB02
:104C60003920FEF752FB0020FEF74FFB3720FEF7FE
:104C70004CFB0020FEF749FB3C20FEF746FB0020E2
:104C8000FEF743FB3620FEF740FB0020FEF73DFB1E
:104C90003220FEF73AFB0020FEF737FB2F20FEF70D
:104CA00034FB0020FEF731FB2C20FEF72EFB00200A
:104CB000FEF72BFB2920FEF728FB0020FEF725FB43
:104CC0002620FEF722FB0020FEF71FFB2420FEF724
:104CD0001CFB0020FEF719FB2420FEF716FB00202A
:104CE000FEF713FB2320FEF710FB0020FEF70DFB61
:104CF0003C20FEF70AFB0020FEF707FB3620FEF7FC
:104D000004FB0020FEF701FB3220FEF7FEFA002034
:104D1000FEF7FBFA2F20FEF7F8FA0020FEF7F5FA6F
:104D20002C20FEF7F2FA0020FEF7EFFA2920FEF71A
:104D3000ECFA0020FEF7E9FA2620FEF7E6FA00205A
:104D4000FEF7E3FA2420FEF7E0FA0020FEF7DDFA92
:104D50002420FEF7DAFA0020FEF7D7FA2320FEF728
:104D6000D4FA0020FEF7D1FAC420FEF7C5FA62207B
:104D7000FEF7CBFA0020FEF7C8FA0520FEF7C5FAC9
:104D80000020FEF7C2FA8420FEF7BFFA0020FEF7EB
:104D9000BCFAF020FEF7B9FA0020FEF7B6FA1820A8
:104DA000FEF7B3FA0020FEF7B0FAA420FEF7ADFA42
:104DB0000020FEF7AAFA1820FEF7A7FA0020FEF757
:104DC000A4FA5020FEF7A1FA0020FEF79EFA0C206C
:104DD000FEF79BFA0020FEF798FA1720FEF795FAE7
:104DE0000020FEF792FA9520FEF78FFA0020FEF7DA
:104DF0008CFAF320FEF789FA0020FEF786FAE62007
:104E0000FEF783FA0020FEF780FAC520FEF774FA59
:104E10003220FEF77AFA0020FEF777FA4420FEF7F8
:104E200074FA0020FEF771FA6520FEF76EFA002092
:104E3000FEF76BFA7620FEF768FA0020FEF765FAB7
:104E40008820FEF762FA0020FEF75FFAC620FEF720
:104E500053FA2020FEF759FA0020FEF756FA1720E1
:104E6000FEF753FA0020FEF750FA0120FEF74DFA44
:104E70000020FEF74AFAC720FEF73EFA0020FEF7B0
:104E800044FA0020FEF741FA0020FEF73EFA002027
:104E9000FEF73BFAC820FEF72FFA0020FEF735FA9E
:104EA0000020FEF732FA0020FEF72FFA0020FEF76E
:104EB0002CFAC920FEF720FA0020FEF726FA00207F
:104EC000FEF723FA0020FEF720FA0020FEF71DFA75
:104ED0000020FEF71AFA0020FEF717FA0020FEF76E
:104EE00014FA0020FEF711FA0020FEF70EFA002057
:104EF000FEF70BFA0020FEF708FA0020FEF705FA8D
:104F00000020FEF702FA0020FEF7FFF90020FEF76E
:104F1000FCF90020FEF7F9F9E020FEF7EDF9162084
:104F2000FEF7F3F90020FEF7F0F91C20FEF7EDF98B
:104F30000020FEF7EAF92120FEF7E7F90020FEF74E
:104F4000E4F93620FEF7E1F90020FEF7DEF946200D
:104F5000FEF7DBF90020FEF7D8F95220FEF7D5F96D
:104F60000020FEF7D2F96420FEF7CFF90020FEF70B
:104F7000CCF97A20FEF7C9F90020FEF7C6F98B209C
:104F8000FEF7C3F90020FEF7C0F99920FEF7BDF93E
:104F90000020FEF7BAF9A820FEF7B7F90020FEF7C7
:104FA000B4F9B920FEF7B1F90020FEF7AEF9C4203C
:104FB000FEF7ABF90020FEF7A8F9CA20FEF7A5F925
:104FC0000020FEF7A2F9D220FEF79FF90020FEF79D
:104FD0009CF9D920FEF799F90020FEF796F9E02018
:104FE000FEF793F90020FEF790F9F320FEF78DF914
:104FF0000020FEF78AF9E120FEF77EF91620FEF781
:1050000084F90020FEF781F91C20FEF77EF90020CC
:10501000FEF77BF92220FEF778F90020FEF775F9FC
:105020003620FEF772F90020FEF76FF94520FEF7F3
:105030006CF90020FEF769F95220FEF766F90020AE
:10504000FEF763F96420FEF760F90020FEF75DF9D2
:105050007A20FEF75AF90020FEF757F98B20FEF769
:1050600054F90020FEF751F99920FEF74EF900207F
:10507000FEF74BF9A820FEF748F90020FEF745F9A6
:10508000B920FEF742F90020FEF73FF9C420FEF7F1
:105090003CF90020FEF739F9CA20FEF736F9002066
:1050A000FEF733F9D220FEF730F90020FEF72DF994
:1050B000D820FEF72AF90020FEF727F9E020FEF7B6
:1050C00024F90020FEF721F9F320FEF71EF9002055
:1050D000FEF71BF9E220FEF70FF90520FEF715F9A0
:1050E0000020FEF712F90B20FEF70FF90020FEF763
:1050F0000CF91B20FEF709F90020FEF706F9342011
:10510000FEF703F90020FEF700F94420FEF7FDF852
:105110000020FEF7FAF84F20FEF7F7F80020FEF720
:10512000F4F86120FEF7F1F80020FEF7EEF87920A0
:10513000FEF7EBF80020FEF7E8F88820FEF7E5F828
:105140000020FEF7E2F89720FEF7DFF80020FEF7D8
:10515000DCF8A620FEF7D9F80020FEF7D6F8B72035
:10516000FEF7D3F80020FEF7D0F8C220FEF7CDF806
:105170000020FEF7CAF8C720FEF7C7F80020FEF7A8
:10518000C4F8D120FEF7C1F80020FEF7BEF8D62003
:10519000FEF7BBF80020FEF7B8F8DD20FEF7B5F803
:1051A0000020FEF7B2F8F320FEF7AFF80020FEF77C
:1051B000ACF8E320FEF7A0F80520FEF7A6F80020E3
:1051C000FEF7A3F80A20FEF7A0F80020FEF79DF8EE
:1051D0001C20FEF79AF80020FEF797F83320FEF720
:1051E00094F80020FEF791F84420FEF78EF8002096
:1051F000FEF78BF85020FEF788F80020FEF785F8C0
:105200006220FEF782F80020FEF77FF87820FEF794
:105210007CF80020FEF779F88820FEF776F8002069
:10522000FEF773F89720FEF770F80020FEF76DF890
:10523000A620FEF76AF80020FEF767F8B720FEF711
:1052400064F80020FEF761F8C220FEF75EF8002047
:10525000FEF75BF8C720FEF758F80020FEF755F878
:10526000D120FEF752F80020FEF74FF8D520FEF7C8
:105270004CF80020FEF749F8DD20FEF746F8002044
:10528000FEF743F8F320FEF740F80020FEF73DF864
:10529000E420FEF731F80120FEF737F80020FEF792
:1052A00034F80120FEF731F80020FEF72EF8022036
:1052B000FEF72BF80020FEF728F82A20FEF725F845
:1052C0000020FEF722F83C20FEF71FF80020FEF732
:1052D0001CF84B20FEF719F80020FEF716F85D20A9
:1052E000FEF713F80020FEF710F87420FEF70DF813
:1052F0000020FEF70AF88420FEF707F80020FEF7EA
:1053000004F89320FEF701F80020FDF7FEFFA2202D
:10531000FDF7FBFF0020FDF7F8FFB320FDF7F5FFD9
:105320000020FDF7F2FFBE20FDF7EFFF0020FDF7A4
:10533000ECFFC420FDF7E9FF0020FDF7E6FFCD20DC
:10534000FDF7E3FF0020FDF7E0FFD320FDF7DDFFD1
:105350000020FDF7DAFFDD20FDF7D7FF0020FDF785
:10536000D4FFF320FDF7D1FF0020FDF7CEFFE520AD
:10537000FDF7C2FF0020FDF7C8FF0020FDF7C5FFC5
:105380000020FDF7C2FF0020FDF7BFFF0220FDF760
:10539000BCFF0020FDF7B9FF2920FDF7B6FF002074
:1053A000FDF7B3FF3C20FDF7B0FF0020FDF7ADFF98
:1053B0004B20FDF7AAFF0020FDF7A7FF5D20FDF7BA
:1053C000A4FF0020FDF7A1FF7420FDF79EFF002041
:1053D000FDF79BFF8420FDF798FF0020FDF795FF68
:1053E0009320FDF792FF0020FDF78FFFA220FDF72D
:1053F0008CFF0020FDF789FFB320FDF786FF00201A
:10540000FDF783FFBE20FDF780FF0020FDF77DFF45
:10541000C420FDF77AFF0020FDF777FFCD20FDF7D0
:1054200074FF0020FDF771FFD320FDF76EFF002011
:10543000FDF76BFFDC20FDF768FF0020FDF765FF3F
:10544000F320FDF762FF0020FDF75FFFE620FDF788
:1054500053FF1120FDF759FF0020FDF756FF3420C0
:10546000FDF753FF0020FDF750FF5620FDF74DFFDD
:105470000020FDF74AFF7620FDF747FF0020FDF7EB
:1054800044FF7720FDF741FF0020FDF73EFF662037
:10549000FDF73BFF0020FDF738FF8820FDF735FFC3
:1054A0000020FDF732FF9920FDF72FFF0020FDF7C8
:1054B0002CFFBB20FDF729FF0020FDF726FF9920D8
:1054C000FDF723FF0020FDF720FF6620FDF71DFFFD
:1054D0000020FDF71AFF5520FDF717FF0020FDF70C
:1054E00014FF5520FDF711FF0020FDF70EFF4520AA
:1054F000FDF70BFF0020FDF708FF4320FDF705FF38
:105500000020FDF702FF4420FDF7FFFE0020FDF71D
:10551000FCFEE720FDF7F0FE3220FDF7F6FE00204E
:10552000FDF7F3FE5520FDF7F0FE0020FDF7EDFE40
:105530007620FDF7EAFE0020FDF7E7FE6620FDF786
:10554000E4FE0020FDF7E1FE6720FDF7DEFE00200F
:10555000FDF7DBFE6720FDF7D8FE0020FDF7D5FE46
:105560008720FDF7D2FE0020FDF7CFFE9920FDF742
:10557000CCFE0020FDF7C9FEBB20FDF7C6FE0020D3
:10558000FDF7C3FE9920FDF7C0FE0020FDF7BDFE2C
:105590007720FDF7BAFE0020FDF7B7FE4420FDF7A7
:1055A000B4FE0020FDF7B1FE5620FDF7AEFE002050
:1055B000FDF7ABFE2320FDF7A8FE0020FDF7A5FEBA
:1055C0003320FDF7A2FE0020FDF79FFE4520FDF7EA
:1055D0009CFE0020FDF799FEE820FDF78DFE0020DF
:1055E000FDF793FE0020FDF790FE9920FDF78DFE5C
:1055F0000020FDF78AFE8720FDF787FE0020FDF7DB
:1056000084FE8820FDF781FE0020FDF77EFE7720D6
:10561000FDF77BFE0020FDF778FE6620FDF775FEA6
:105620000020FDF772FE8820FDF76FFE0020FDF7D9
:105630006CFEAA20FDF769FE0020FDF766FEBB2088
:10564000FDF763FE0020FDF760FE9920FDF75DFE8B
:105650000020FDF75AFE6620FDF757FE0020FDF7FB
:1056600054FE5520FDF751FE0020FDF74EFE55205B
:10567000FDF74BFE0020FDF748FE4420FDF745FEF8
:105680000020FDF742FE4420FDF73FFE0020FDF71D
:105690003CFE5520FDF739FE0020FDF736FEE920DF
:1056A000FDF72AFEAA20FDF730FE0020FDF72DFEB3
:1056B0000020FDF72AFE0020FDF727FE0020FDF761
:1056C0001BFEAA20FDF721FECF20FDF715FE0020CE
:1056D000FDF71BFE0020FDF718FE0020FDF715FE6C
:1056E0000020FDF712FE0020FDF70FFE0020FDF761
:1056F0000CFE0020FDF709FE0020FDF706FE00204D
:10570000FDF703FE0020FDF700FE0020FDF7FDFD84
:105710000020FDF7FAFD0020FDF7F7FD0020FDF762
:10572000F4FD0020FDF7F1FD0020FDF7EEFD002067
:10573000FDF7EBFDF020FDF7DFFD0020FDF7E5FDB7
:105740005020FDF7E2FD0020FDF7DFFD0020FDF712
:10575000DCFD0020FDF7D9FDF320FDF7CDFD002095
:10576000FDF7D3FDF920FDF7C7FD0620FDF7CDFDC0
:105770001020FDF7CAFD2920FDF7C7FD0020FDF729
:10578000C4FD3A20FDF7B8FD5520FDF7BEFD112000
:10579000FDF7B2FD6420FCF787F92920FDF7ACFD89
:1057A0003520FDF7A9FD0020FDF7AFFD5120FDF7E5
:1057B000A3FDFF20FDF7A9FD5320FDF79DFD2C2043
:1057C000FDF7A3FD5520FDF797FD8220FDF79DFD18
:1057D0002C20FDF791FD02F0E9B8FE48808845F2E3
:1057E000105188427ED155214FF47040FDF79FFD46
:1057F000AA214FF20100FDF79AFD52214FF202005B
:10580000FDF795FD08214FF20300FDF790FD012102
:105810004FF20400FDF78BFD0D214FF43040FDF7F2
:1058200086FD0D214BF20100FDF781FD0D214BF2AC
:105830000200FDF77CFD34214FF43640FDF777FD83
:1058400034214BF20160FDF772FD34214BF202600E
:10585000FDF76DFD0D214FF43140FDF768FD0D2181
:105860004BF20110FDF763FD0D214BF20210FDF725
:105870005EFD34214FF43740FDF759FD34214BF2E2
:105880000170FDF754FD34214BF20270FDF74FFD1E
:1058900000214FF43240FDF74AFD00214BF2012078
:1058A000FDF745FD00214BF20220FDF740FD2421CC
:1058B0004FF43840FDF73BFD24214BF60100FDF786
:1058C00036FD24214BF60200FDF731FD01214FF496
:1058D0003F40FDF72CFD0F214FF43340FDF727FD2E
:1058E0000F2100E0FEE34BF20130FDF720FD0F2118
:1058F0004BF20230FDF71BFD34214FF43940FDF728
:1059000016FD34214BF60110FDF711FD34214BF645
:105910000210FDF70CFD08214FF43540FDF707FD9F
:1059200008214BF20150FDF702FD08214BF2025015
:10593000FDF7FDFC03214FF44240FDF7F8FC242164
:105940004FF43A40FDF7F3FC24214BF60120FDF71C
:10595000EEFC24214BF60220FDF7E9FC00214FF478
:105960003C40FDF7E4FC78214BF60140FDF7DFFCFD
:1059700000214BF60240FDF7DAFC00214FF43D40D8
:10598000FDF7D5FC78214BF60150FDF7D0FC002146
:105990004BF60250FDF7CBFC00214FF43E40FDF7E3
:1059A000C6FC64214BF60160FDF7C1FC00214FF4F9
:1059B0005140FDF7BCFC33214DF20110FDF7B7FC5F
:1059C00000214DF20210FDF7B2FC34214DF203101C
:1059D000FDF7ADFC00214DF20410FDF7A8FC3A21C3
:1059E0004DF20510FDF7A3FC00214DF20610FDF766
:1059F0009EFC4A214DF20710FDF799FC00214DF263
:105A00000810FDF794FC5C214DF20910FDF78FFCA6
:105A100000214DF20A10FDF78AFC81214DF20B1096
:105A2000FDF785FC00214DF20C10FDF780FCA6214E
:105A30004DF20D10FDF77BFC00214DF20E10FDF72D
:105A400076FCE5214DF20F10FDF771FC01214DF2BE
:105A50001010FDF76CFC13214DF21110FDF767FCDF
:105A600001214DF21210FDF762FC54214DF213108A
:105A7000FDF75DFC01214DF21410FDF758FC822169
:105A80004DF21510FDF753FC01214DF21610FDF7F4
:105A90004EFCCA214DF21710FDF749FC02214DF2D0
:105AA0001810FDF744FC00214DF21910FDF73FFCE2
:105AB00002214DF21A10FDF73AFC01214DF21B10A4
:105AC000FDF735FC02214DF21C10FDF730FC3421AE
:105AD0004DF21D10FDF72BFC02214DF21E10FDF7BB
